:1000000079C00000A7C00000A5C00000A3C0000088
:10001000A1C000009FC000009DC000009BC0000068
:1000200099C0000097C0000095C0000093C0000078
:1000300091C000008FC000008DC000008BC0000088
:1000400089C0000087C0000085C0000083C0000098
:1000500081C000007FC000007DC0000048C50000D6
:1000600079C000000EC50000E3C4000073C00000AA
:1000700071C000006FC000006DC000006BC00000C8
:1000800069C0000067C0000065C0000063C00000D8
:1000900061C000005FC000005DC000005BC00000E8
:1000A00059C0000057C0000055C0000053C00000F8
:1000B00051C000004FC000004DC000004BC0000008
:1000C00049C0000047C0000045C0000043C0000018
:1000D00041C000003FC0000075C400004AC40000D9
:1000E00039C00000A503AA03AF03BA03C903D003B4
:1000F000E803C10511241FBECFEFD1E2DEBFCDBFA3
:1001000000E00CBF24E0A8E4B2E001C01D92A13AD7
:10011000B207E1F712E0A0E0B2E0E2EAF3E100E0CA
:100120000BBF02C007900D92A834B107D9F710E0B9
:10013000CAE7D0E000E006C021970109802FFE0148
:100140000E94C309C937D10780E00807A9F784D501
:100150000C94CF0955CFFC01A089B18982E08C9322
:10016000A485B5851C92A685B78580E18C93108EF9
:10017000A489B58986E08C93A289B3898C9180612A
:100180008C93A289B3898C9188608C93A289B3895E
:100190008C9180688C930288F389E02D80818F7D1B
:1001A000808308958F929F92AF92BF92CF92DF92F9
:1001B000EF92FF920F931F930091700210917102C2
:1001C00020E030E0C12CD12C7601C416D506E6061D
:1001D000F70609F1DC01ED91CD01480159019E2698
:1001E000E0E0F0E095018401000F111F221F331F92
:1001F00097FE04C0B1E20B27B0E11B273196E8302F
:10020000F10519F048015901EDCFEFEFCE1ADE0AE2
:10021000EE0AFE0ADACF10937102009370021F916A
:100220000F91FF90EF90DF90CF90BF90AF909F9095
:100230008F900895CF92DF92EF92FF920F931F93CA
:10024000CF93DF936C017A018B01C0E0D0E0CE1533
:10025000DF0581F0D8016D918D01D601ED91FC9102
:100260000190F081E02DC6011995892B11F021969E
:10027000EECF7E01C701DF91CF911F910F91FF90CB
:10028000EF90DF90CF900895089580E090E008957A
:10029000FC01538D448D252F30E0842F90E0821B8C
:1002A000930B541710F0CF96089501970895FC0111
:1002B000918D828D981761F0828DDF01A80FB11D9D
:1002C0005D968C91928D9F5F9F73928F90E00895C1
:1002D0008FEF9FEF0895FC01918D828D981731F07B
:1002E000828DE80FF11D858D90E008958FEF9FEFCF
:1002F0000895FC01918D228D892F90E0805C9F4FA5
:10030000821B91098F739927089582E792E0F1DFAC
:1003100021E0892B09F420E0822F08958FE093E0FB
:10032000E8DF21E0892B09F420E0822F0895FC0109
:10033000848DDF01A80FB11DA35ABF4F2C91848D6E
:1003400090E001968F739927848FA689B7892C93A3
:10035000A089B1898C91837080648C93938D848DF6
:10036000981306C00288F389E02D80818F7D8083F9
:100370000895EF92FF920F931F93CF93DF93EC01B9
:1003800081E0888F9B8D8C8D981305C0E889F98951
:10039000808185FD25C0F62E0B8D10E00F5F1F4F6D
:1003A0000F731127E02E8C8DE8120BC00FB607FCDF
:1003B000FACFE889F989808185FFF5CFCE01B7DFD3
:1003C000F2CF8B8DFE01E80FF11DE35AFF4FF08253
:1003D0009FB7F8940B8FEA89FB89808180620AC0FD
:1003E0009FB7F894EE89FF896083E889F989808155
:1003F0008370806480839FBF81E090E0DF91CF9124
:100400001F910F91FF90EF900895CF93DF93EC0130
:10041000888D8823C1F0EA89FB89808185FD05C02C
:10042000A889B9898C9186FD0EC00FB607FCF5CF5F
:10043000808185FFF2CFA889B9898C9185FFEDCFA6
:10044000CE0175DFE8CFDF91CF91089580E090E095
:10045000892B19F063DF811120C080E090E0892BA7
:1004600041F080E090E0892B21F00E940000811192
:1004700017C080E090E0892B41F080E090E0892B6C
:1004800021F00E94000081110EC080E090E0892BD5
:1004900079F03BDF81110AC008950E940000DDCF92
:1004A0000E940000E6CF0E940000EFCF0C940000F5
:1004B00008952FB7F8946091500270915102809185
:1004C0005202909153022FBF08956115710579F082
:1004D000FB0101900020E9F73197AF01461B570B54
:1004E000DC01ED91FC910280F381E02D199480E014
:1004F00090E008958F929F92AF92BF92EF92FF92F9
:100500000F931F93CF93DF93CDB7DEB7A1970FB6AD
:10051000F894DEBF0FBECDBF7C01FA01CB0119A25A
:10052000223008F42AE08E010F5D1F4F822E912C9D
:10053000A12CB12CBF01A5019401FDD5F901CA017F
:10054000015011096A3014F4605D01C0695CD80182
:100550006C93232B242B252B69F7B801C701B5DF3A
:10056000A1960FB6F894DEBF0FBECDBFDF91CF913D
:100570001F910F91FF90EF90BF90AF909F908F9041
:1005800008958F929F92AF92BF92CF92DF92EF9297
:10059000FF920F931F93CF93DF936B017C01142F76
:1005A0009B01AC01ECD6882319F06CE172E024C009
:1005B00046015701E894B7F82FEF3FEF4FE75FE7A9
:1005C000C501B401DCD681110CC02FEF3FEF4FE71E
:1005D0005FE7C501B40196D418161CF460E272E01E
:1005E0000BC02FEF3FEF4FE75FE4C701B601C3D663
:1005F00018168CF464E272E08FE093E0DF91CF9103
:100600001F910F91FF90EF90DF90CF90BF90AF9030
:100610009F908F905ACF2FEF3FEF4FE75FECC701CE
:10062000B60170D487FDE6CF20E030E0A901C70114
:10063000B60168D487FF0AC06DE28FE093E099DECF
:10064000EC01F7FAF094F7F8F09402C0C0E0D0E0C3
:1006500000E060E070E080E09FE3101739F020E0F8
:1006600030E040E251E4EED50F5FF7CFA7019601ED
:1006700085D56B017C0153D64B015C012AE0AB01AF
:10068000BC018FE093E036DFC80FD91F112389F139
:10069000C501B4013BD49B01AC01C701B6016DD5C6
:1006A0006B017C016EE28FE093E063DEC80FD91F1F
:1006B00020E030E040E251E4C701B60188D44B01AC
:1006C0005C012DD66B01E12CF12C2AE0B701A601CB
:1006D0008FE093E00FDFC80FD91FC701B60116D412
:1006E0009B01AC01C501B40148D56B017C011150DF
:1006F000F9F6CE01DF91CF911F910F91FF90EF900E
:10070000DF90CF90BF90AF909F908F90089543D689
:100710000F931F93CF93DF93EC018B0182E792E05D
:10072000E8DD892B09F420C182E792E0C0DD9C015D
:1007300080914A0290E08730910508F0FBC0FC01EF
:100740008827EE58FF4F8F4F1EC62A3509F0F4C098
:1007500081E03BC0253A09F0EFC082E036C0FE01DF
:10076000E755FF4FC90199279183808320930202A7
:1007700083E02BC0FE01E755FF4F522F44278081B5
:100780009181842B952B918380832093030284E0B5
:100790001CC03327309349022093480285E015C0DE
:1007A000322F22278091480290914902282B392B21
:1007B00030934902209348021DA21EA21FA218A630
:1007C000109271021092700286E080934A02B4C0C7
:1007D0008DA19EA1AFA1B8A5AC01BD014F5F5F4F38
:1007E0006F4F7F4F4DA35EA36FA378A7FE01E80F65
:1007F000F91F21A7FE01E755FF4F80819181A0E0FD
:10080000B0E0481759076A077B0708F495C044E031
:1008100050E060E070E080E092E0C4DC4DA15EA1B9
:100820006FA178A5CE018996BDDC20917002309130
:10083000710280914802909149022817390709F006
:1008400079C089A5803911F48AA58A838BA5803A5D
:1008500049F4ECA5F0E086E0DE01139601900D92DC
:100860008A95E1F78AA9803B49F4EBA9F0E086E09C
:10087000DE01199601900D928A95E1F789AD803CD1
:1008800049F4EAADF0E086E0DE011F9601900D929A
:100890008A95E1F7FE01E05CFF4F8081803D09F021
:1008A00049C03296608170E0762F6627319780814B
:1008B000680F711D072E000C880B990B29D320E0BF
:1008C00030E048EC52E4BED46D8B7E8B8F8B988FDA
:1008D000FE01EC5BFF4F608170E0762F6627319759
:1008E0008081680F711D072E000C880B990B10D3A7
:1008F00020E030E048EC52E4A5D4698F7A8F8B8FEA
:100900009C8FFE01EA5BFF4F608170E0762F6627C7
:1009100031978081680F711D072E000C880B990B91
:10092000F7D220E030E040E251E48CD46D8F7E8F2E
:100930008F8F98A310924A028D899E89AF89B88DB6
:10094000F80185879687A787B08B898D9A8DAB8DA7
:10095000BC8D818B928BA38BB48B6D8D7E8D8F8D97
:1009600098A1D8D4F8016487DF91CF911F910F919E
:1009700008951F920F920FB60F9211240BB60F928B
:100980002F933F934F935F936F937F938F939F9397
:10099000AF93BF93EF93FF9382E792E0C8DCFF91A0
:1009A000EF91BF91AF919F918F917F916F915F91E7
:1009B0004F913F912F910F900BBE0F900FBE0F9054
:1009C0001F9018951F920F920FB60F9211240BB61D
:1009D0000F922F938F939F93EF93FF93E091820257
:1009E000F09183028081E0918802F091890282FD7A
:1009F00012C0908180918B028F5F8F7320918C0247
:100A0000821751F0E0918B02F0E0EE58FD4F958F88
:100A100080938B0201C08081FF91EF919F918F9114
:100A20002F910F900BBE0F900FBE0F901F90189537
:100A30001F920F920FB60F9211240BB60F922F93A5
:100A40003F934F935F936F937F938F939F93AF9356
:100A5000BF93EF93FF938FE093E069DCFF91EF91F9
:100A6000BF91AF919F918F917F916F915F914F91C6
:100A70003F912F910F900BBE0F900FBE0F901F90C4
:100A800018951F920F920FB60F9211240BB60F926A
:100A90002F938F939F93EF93FF93E0911F03F09118
:100AA00020038081E0912503F091260382FD12C08E
:100AB0009081809128038F5F8F7320912903821783
:100AC00051F0E0912803F0E0E15FFC4F958F8093B7
:100AD000280301C08081FF91EF919F918F912F9109
:100AE0000F900BBE0F900FBE0F901F9018951F9286
:100AF0000F920FB60F9211242F933F938F939F93D2
:100B0000AF93BF938091500290915102A0915202F5
:100B1000B091530230914F0223E0230F2D3720F480
:100B20000196A11DB11D05C026E8230F0296A11D47
:100B3000B11D20934F028093500290935102A093D5
:100B40005202B093530280914B0290914C02A091BB
:100B50004D02B0914E020196A11DB11D80934B0232
:100B600090934C02A0934D02B0934E02BF91AF916F
:100B70009F918F913F912F910F900FBE0F901F90DB
:100B80001895E2E7F2E01382128248EE53E060E04B
:100B900070E0448355836683778388E092E0918395
:100BA000808325E331E03587248724E331E03787EC
:100BB000268720E331E0318B208B21E331E0338B3A
:100BC000228B22E331E0358B248B26E331E0378B17
:100BD000268B118E128E138E148EEFE0F3E01382AB
:100BE000128244835583668377839183808385EC67
:100BF00090E09587848784EC90E09787868780ECE7
:100C000090E0918B808B81EC90E0938B828B82ECD7
:100C100090E0958B848B86EC90E0978B868B118E81
:100C2000128E138E148EECEAF3E016821782108671
:100C30001186128613861486158616861786108AE4
:100C4000118A128A138A148A158A8AE192E0909393
:100C5000F5038093F4030895789484B5826084BD8D
:100C600084B5816084BD85B5826085BD85B58160B0
:100C700085BD80916E00816080936E00109281002E
:100C800080918100826080938100809181008160E9
:100C900080938100809180008160809380008091AA
:100CA000B10084608093B1008091B0008160809336
:100CB000B0008091910082608093910080919100BA
:100CC000816080939100809190008160809390007A
:100CD0008091A10082608093A1008091A100816039
:100CE0008093A1008091A00081608093A0008091FA
:100CF0002101826080932101809121018160809394
:100D000021018091200181608093200180917A00EF
:100D1000846080937A0080917A00826080937A0068
:100D200080917A00816080937A0080917A00806857
:100D300080937A001092C1001092F0031092F10398
:100D40001092F2031092F3031092AE031092AF03CD
:100D50001092B0031092B103ACDB6B017C014B012C
:100D60005C0188EB880E8BE0981EA11CB11CA1DBF6
:100D70006C157D058E059F0528F086169706A8063A
:100D8000B906A8F78FE093E09093EF038093EE030A
:100D9000E2D98FDB6093AE037093AF038093B0030F
:100DA0009093B10368E272E08091EE039091EF03BB
:100DB0008CDB7FDB6B017C014B015C018AE0880EE0
:100DC000911CA11CB11C75DB6C157D058E059F0562
:100DD00028F086169706A806B906A8F781E0809342
:100DE000C20382E792E0B7D98FE093E0B4D96AE317
:100DF00072E08FE093E069DB67E372E08FE093E0FD
:100E000064DB1092670210926802109269021092DD
:100E10006A021092620210926302109264021092AF
:100E200065021092660245DB70935502609354028E
:100E300066E572E084EF93E06BDC3BDBC09054022C
:100E4000D09055020D2C000CEE08FF08DC01CB0100
:100E50008C199D09AE09BF0985369105A105B1051B
:100E600008F44EC060916302709164028091650243
:100E70009091660242E085DB67E372E08FE093E0E9
:100E800024DB609167027091680280916902909101
:100E90006A0242E076DB67E372E08FE093E015DB05
:100EA000C09062020C2C000CDD08EE08FF08F7FE73
:100EB0000DC06DE28FE093E05CDA44275527BA015C
:100EC0004C195D096E097F092AE003C02AE0B701C9
:100ED000A6018FE093E00EDB67E372E08FE093E022
:100EE000F4DA60E472E08FE093E0EFDA67E372E057
:100EF0008FE093E0EADADDDA7093550260935402F2
:100F0000A5DA96CF40D008F481E00895E89409C0AE
:100F100097FB3EF490958095709561957F4F8F4F2C
:100F20009F4F9923A9F0F92F96E9BB279395F69542
:100F3000879577956795B795F111F8CFFAF4BB0FC0
:100F400011F460FF1BC06F5F7F4F8F4F9F4F16C024
:100F5000882311F096E911C0772321F09EE8872FAE
:100F6000762F05C0662371F096E8862F70E060E06A
:100F70002AF09A95660F771F881FDAF7880F9695E3
:100F8000879597F90895990F0008550FAA0BE0E887
:100F9000FEEF16161706E807F907C0F0121613063B
:100FA000E407F50798F0621B730B840B950B39F47B
:100FB0000A2661F0232B242B252B21F408950A26E1
:100FC00009F4A140A6958FEF811D811D08950BD0D6
:100FD00078C069D028F06ED018F0952309F05AC077
:100FE0005FC01124A2C07ED0A0F3959FD1F3950FCE
:100FF00050E0551F629FF001729FBB27F00DB11D9D
:10100000639FAA27F00DB11DAA1F649F6627B00D2C
:10101000A11D661F829F2227B00DA11D621F739F15
:10102000B00DA11D621F839FA00D611D221F749F23
:101030003327A00D611D231F849F600D211D822F6A
:10104000762F6A2F11249F5750408AF0E1F08823B1
:101050004AF0EE0FFF1FBB1F661F771F881F9150BE
:101060005040A9F79E3F510570F014C05EC05F3F2D
:10107000ECF3983EDCF3869577956795B795F795F1
:10108000E7959F5FC1F7FE2B880F911D9695879579
:1010900097F9089597F99F6780E870E060E00895F8
:1010A0009FEF80EC089500240A9416161706180680
:1010B0000906089500240A9412161306140605065C
:1010C0000895092E0394000C11F4882352F0BB0FED
:1010D00040F4BF2B11F460FF04C06F5F7F4F8F4F50
:1010E0009F4F089557FD9058440F551F59F05F3F8B
:1010F00071F04795880F97FB991F61F09F3F79F03A
:1011000087950895121613061406551FF2CF4695BB
:10111000F1DF08C0161617061806991FF1CF86953D
:101120007105610508940895E894BB276627772721
:10113000CB0197F90895A1E21A2EAA1BBB1BFD0152
:101140000DC0AA1FBB1FEE1FFF1FA217B307E407A6
:10115000F50720F0A21BB30BE40BF50B661F771FFE
:10116000881F991F1A9469F76095709580959095DE
:101170009B01AC01BD01CF0108955058BB27AA27A0
:101180000ED09FCF90DF30F095DF20F031F49F3FFD
:1011900011F41EF485CF0EF4E095E7FB7BCFE92F29
:1011A000A1DF80F3BA17620773078407950718F069
:1011B00071F49EF5B9CF0EF4E0950B2EBA2FA02D49
:1011C0000B01B90190010C01CA01A0011124FF27F4
:1011D000591B99F0593F50F4503E68F11A16F040EF
:1011E000A22F232F342F4427585FF3CF46953795EE
:1011F0002795A795F0405395C9F77EF41F16BA0BB3
:10120000620B730B840BBAF09150A1F0FF0FBB1F60
:10121000661F771F881FC2F70EC0BA0F621F731FA9
:10122000841F48F4879577956795B795F7959E3F06
:1012300008F0B3CF9395880F08F09927EE0F979594
:10124000879508950CD03DCF35DF40F02CDF30F08E
:1012500021F45F3F19F01ECF511167CF21CF42DF3C
:1012600098F39923C9F35523B1F3951B550BBB276D
:10127000AA2762177307840738F09F5F5F4F220F1A
:10128000331F441FAA1FA9F333D00E2E3AF0E0E813
:1012900030D091505040E695001CCAF729D0FE2F5F
:1012A00027D0660F771F881FBB1F261737074807F1
:1012B000AB07B0E809F0BB0B802DBF01FF279358A7
:1012C0005F4F2AF09E3F510568F0E4CE2ECF5F3F7E
:1012D000ECF3983EDCF3869577956795B795F7958F
:1012E0009F5FC9F7880F911D9695879597F9089587
:1012F000E1E0660F771F881FBB1F62177307840723
:10130000BA0720F0621B730B840BBA0BEE1F88F731
:10131000E095089504D06894B11107CF0895EADEEE
:1013200088F09F5790F0B92F9927B751A0F0D1F0CE
:10133000660F771F881F991F1AF0BA95C9F712C058
:10134000B13081F0F1DEB1E00895EECE672F782F55
:101350008827B85F39F0B93FCCF3869577956795C4
:10136000B395D9F73EF490958095709561957F4F30
:101370008F4F9F4F089507DE08F48FEF089503DE27
:10138000880B990B0895EE0FFF1F881F8BBF0790E6
:10139000F691E02D199481E090E0F89400C0F89463
:0213A000FFCF7D
:1013A2005AA5000000000000B9011A014801050217
:1013B200790157016B010000000088036E616E0025
:1013C200696E66006F766600564D4450565F317CFA
:1013D200315F564D4450560D0A00736574757000A6
:0813E2002D2D2D2D2D2D0000F5
:00000001FF
